:020000040800F2
:10000000005000206D210008C5200008C92000080C
:10001000CD200008D1200008D520000800000000F5
:10002000000000000000000000000000D9200008CF
:10003000DD20000800000000E1200008E5200008A5
:10004000B5210008B5210008B5210008B521000838
:10005000B5210008B5210008B5210008B521000828
:10006000B5210008B5210008B5210008B521000818
:10007000B5210008B5210008B5210008B521000808
:10008000B5210008B5210008B521000801210008AC
:10009000F5200008B5210008B5210008B5210008A9
:1000A000B5210008B5210008B5210008B5210008D8
:1000B000B521000805210008B5210008B521000878
:1000C000B5210008B5210008B5210008B5210008B8
:1000D00011210008B5210008B5210008B52100084C
:1000E000B5210008B5210008B52100080000000076
:1000F0000000000000000000000000000000000000
:0C01000000000000000000005FF808F1A3
:10010C0010B5054C237833B9044B13B10448AFF345
:10011C0000800123237010BD80000020000000002F
:10012C00742A00080C4B43B10C4810B50C49AFF3C2
:10013C0000800C48036823B910BD0A48036833B922
:10014C007047094B002BF7D0BDE810401847064B01
:10015C00002BF5D0184700BF00000000742A0008DF
:10016C008400002080000020000000004FF47A730F
:10017C0070B50D4D0D4A29781268B3FBF1F30646A4
:10018C00B2FBF3F000F0D4FB08B90F2E01D901201B
:10019C0070BD0446024631464FF0FF3000F086FB3E
:1001AC006E60204670BD00BF0000002018000020CB
:1001BC00074A08B51368032043F01003136000F0DE
:1001CC0063FB0020FFF7D2FF01F094FE002008BD76
:1001DC0000200240034A044B11681B780B44136047
:1001EC00704700BF2401002000000020014B18685C
:1001FC00704700BF2401002038B50446FFF7F6FF16
:10020C00631C054602D0044B1B781C44FFF7EEFF21
:10021C00401B8442FAD838BD000000200122F0B502
:10022C004C69036802FA04F0C643D3F800224D6A05
:10023C0022F47C5242EA052242F00102C3F8002269
:10024C00D3F81C52CA693540C3F81C52002A3DD160
:10025C00CA688D88D3F80C72D1F808E045EA0245DB
:10026C000A8803EBC404374042EA0E42C3F80C720E
:10027C00C4F84052C4F844228A690ABBD3F8042259
:10028C003240C3F804220A69A2B9D3F814223240CE
:10029C00C3F814220A6A012A04D1D3F81C22104391
:1002AC00C3F81C02D3F80022002022F00102C3F88C
:1002BC000022F0BDD3F814220243C3F81422E9E75C
:1002CC00D3F804220243C3F80422DCE7012AD3D179
:1002DC00D3F80C228D8840EA020E0A688F6845EA32
:1002EC0002458A8903EBC40442EA0742C3F80CE2D4
:1002FC00C4F84052C4F84422BEE700BF002800F006
:10030C009180F8B590F83C30054603F0FF02002BC5
:10031C007CD002222B6885F83C201A6822F002025D
:10032C001A601A6842F001021A60FFF75FFF064676
:10033C0004E0FFF75BFF801B0A285CD82A6854682E
:10034C0014F00104F5D05368D9075AD5AB69E969A3
:10035C00012B0CBF802300230129296A0CBF43F019
:10036C00400323F040030129696A0CBF43F02003CA
:10037C0023F020030129A96A0CBF43F0100323F0DA
:10038C0010030129E96AE8680CBF43F0080323F065
:10039C0008030129A9682F696E696C6841EA00019C
:1003AC00106841EA07010CBF43F0040323F0040377
:1003BC00013C20F0FC003143214303431360D16125
:1003CC00136823F001031360FFF710FF044604E0E9
:1003DC00FFF70CFF001B0A281DD82B685A68D207A0
:1003EC00F6D45B6813F001030BD101222B64184681
:1003FC0085F83C20F8BD032085F83D4085F83C008D
:10040C00F8BD0423012085F83C30F8BD80F83D2070
:10041C0001F0C0FD7DE70320002385F83C0085F842
:10042C003D30F8BD012070470268034691684801D1
:10043C0002D4916809015BD593F83D10012955D080
:10044C0001209168F0B4490183F83D0063D49168B0
:10045C0011F0006F14BF04460224240111191D6B06
:10046C00D1F88061A86806F00106C1F88061002807
:10047C0046D12F68E868D1F8806140EA4750304394
:10048C00C1F88001D1F88461286926F00F0600F0CC
:10049C000F002861C1F88461D1F8846114443043A1
:1004AC00C1F884016869C4F88801A869C4F88C0192
:1004BC0093F83C00C0B2322833D0622835D02228C1
:1004CC002BD0122083F83C0000201864D1F8804116
:1004DC0083F83D0044F00104C1F880415369F0BC3D
:1004EC0043F40F4343F001035361704702207047FC
:1004FC009168C800A0D40422012083F83C207047E6
:10050C00EF686E683843D1F8807140EAC600384312
:10051C00C1F88001B6E700249FE7422083F83C0035
:10052C00D2E7522083F83C00CEE7722083F83C00DF
:10053C00CAE700BF704700BFF8B5426B836B046815
:10054C00002908BF13460A01A518D5F8B06106F0BA
:10055C0004069E60002E50D1D5F8B061760D1E6059
:10056C002244D5F8B071D5F8B4C1D5F8B461D2F83D
:10057C00B85107F0020E1D75D2F8B8710CF00F05CA
:10058C003F0A5F75D2F8B871C6F307263F0C9F750A
:10059C00D2F8B871C3F80CE03F0EDF75D2F8BC711D
:1005AC001D611F76D2F8BC51DE612D0A5D76D2F842
:1005BC00BC5119622D0C9D76D2F8BC21120EDA7644
:1005CC002023F9B9E360636923F00A03636190F8AF
:1005DC003C3003F0EF03222B1FD090F83C30DBB201
:1005EC00622B38D0722B3DD0422B26D0012380F8C1
:1005FC003C30FFF79FFF0020F8BDD5F8B061F6083E
:10060C005E60ADE72361636923F05003636190F88A
:10061C003C3003F0EF03222B06D10268536923F41C
:10062C000F4353610029D8D090F83C30DBB2622BD9
:10063C000AD0722B1DD0522BD8D1122380F83C300B
:10064C00FFF778FF0020F8BD222380F83C30FFF73D
:10065C0071FF0020F8BD322380F83C30FFF76AFFB1
:10066C000020F8BD522380F83C30FFF763FF0020D8
:10067C00F8BD422380F83C30FFF75CFF0020F8BD4A
:10068C00704700BF036870B5DA68054612F01002B7
:10069C005C6902D014F0080278D114461A695969C1
:1006AC00D00601D549066CD45A69D2070BD5996886
:1006BC00714A98688A439E687BD0704A824378D08E
:1006CC006F4AB24375D0DA685969900702D089072E
:1006DC0000F198801A695969920702D0CE0600F190
:1006EC0097802A6C22432A649A695969D4075869FD
:1006FC0001D5CA0556D49A6959699407586901D528
:10070C00890548D49A6959695607586901D54C0529
:10071C0030D49A69596912F0700F586901D00905E3
:10072C0010D42A6C6AB101220421596085F83C204E
:10073C005A69284622F40F4222F05B025A61FFF7F5
:10074C009FFF70BD0204ECD59A6902F07002302A4A
:10075C0000F0888078D9502A71D0602A7DD0402A48
:10076C0003D12A6C42F040022A649A6922F070028A
:10077C009A61D6E70004CCD52A6C42F004022A64B4
:10078C00C7E7102244F480641A618DE710224FF4FD
:10079C000074DA6082E70204B4D52A6C42F00202DB
:1007AC002A64AFE70604A6D52A6C42F001022A643B
:1007BC00A1E79A6899689607986806D48A0504D4C4
:1007CC00C60702D444F4006417E05A6922F001020F
:1007DC005A6195F83C20122A20D095F83C30DBB2B7
:1007EC00522B20D0722B26D0422B20D0012385F8FF
:1007FC003C30284601F0A0F92B689968214A0A433D
:10080C009A6060E700212846FFF796FE2B6861E7A7
:10081C0001212846FFF790FE2B6862E75A6922F403
:10082C000F425A61D9E7322385F83C30E1E72223A5
:10083C0085F83C30DDE7622385F83C30D9E72A6C3B
:10084C0042F080022A6490E7102A10D0202A8CD122
:10085C002A6C42F010022A6487E72A6C42F48072F8
:10086C002A6482E72A6C42F020022A647DE72A6C13
:10087C0042F008022A6478E7010000040001000835
:10088C0000000110090501004FF6FF01064A0002A5
:10089C00D36800F4E0600B4043F0BF6343F40033D3
:1008AC000343D360704700BF00ED00E0184B70B4F9
:1008BC00DC68C4F30224C4F10706042E04F104031B
:1008CC0028BF0426062B17D90125033CA540013D62
:1008DC002A400123B340013B1940A140002841EAC2
:1008EC0002010CDB090100F16040C9B200F5614066
:1008FC0080F8001370BC704700221446E9E7054BE2
:10090C0000F00F000901C9B20344197670BC70479E
:10091C0000ED00E0FCEC00E0012300F01F01034AB5
:10092C0040098B4042F82030704700BF00E100E0E6
:10093C000138B0F1807F0DD230B4F02500220721B0
:10094C00054B064C586084F82350104630BC9A6016
:10095C00196070470120704710E000E000ED00E0E6
:10096C00044A042813680CBF43F0040323F0040367
:10097C001360704710E000E0704700BF08B5FFF748
:10098C00FBFF08BD38B590F82130022B04D00422AF
:10099C0001248263204638BD03681D491A688B42C6
:1009AC0022F00E021A601A6822F001021A6021D09D
:1009BC00184A93421CD0143293421FD014329342E3
:1009CC001FD0143293421FD0143293420CBF4FF4F9
:1009DC0080134FF08073012100240F4D426B6B602C
:1009EC0080F8211080F8204032B19047204638BD65
:1009FC001023F0E70123EEE71446CBE74FF48073A6
:100A0C00E9E74FF48053E6E74FF48033E3E700BFA8
:100A1C00080002401C000240000002402DE9F04F8B
:100A2C004FF0000885B043466FF01F06DFF8E0E199
:100A3C00DFF8E0C1704F009005E00133102B06F198
:100A4C00040600F08B8001220C689A401440A242EC
:100A5C00F3D14D68122D00F0A58000F28E80022D8E
:100A6C0000F0A78040F28380032D00F09F80112DB1
:100A7C0002D1CA6802F10408FF2C72D8009A4FEA1E
:100A8C00830A914612680F2505FA0AFB22EA0B022B
:100A9C0008FA0AFA42EA0A02C9F80020D1F804A0BE
:100AAC001AF0805FC9D0DEF8189023F0030249F0E9
:100ABC000109CEF81890DEF8189002F1804209F086
:100ACC000109CDF80C9002F5803203F00309DDF832
:100ADC000CB04FEA8909D2F808B005FA09F52BEAEF
:100AEC00050001900098604579D0444DA84279D01A
:100AFC00434D0098A8427AD0424D0098A8420CBFB2
:100B0C004FF0030B4FF0040B0BFA09F901981AF490
:100B1C00803F40EA090595603A6803F1010314BF70
:100B2C002243A2433A607A681AF4003F14BF22436E
:100B3C00A2437A60BA681AF4801F14BF2243A243FE
:100B4C00BA60FA681AF4001F14BF144322EA0404B2
:100B5C00102BFC6006F104067FF475AF05B0BDE800
:100B6C00F08F0098B246426800F104098BE7A5B1FA
:100B7C00012D81D1D1F80C807EE7234885420CD021
:100B8C001BD92248854208D000F58030854204D01C
:100B9C00DFF884904D457FF46FAF8D68BDB94FF091
:100BAC00040869E7CA6802F10C0865E74FF0000811
:100BBC0062E7CA6802F108085EE7DFF860904D450D
:100BCC00EBD009F580394D457FF456AFE5E7009839
:100BDC00012D0CBF026142614FF008084CE74FF049
:100BEC00000993E74FF0010B0BFA09F98EE74FF070
:100BFC00020B0BFA09F989E700040140000C0140D3
:100C0C0000100140001401400000211000003110C0
:100C1C0000100240000801400000221000001110DA
:100C2C008368194214BF01200020704702B90904DF
:100C3C0001617047C3685940C16070472DE9F041AC
:100C4C00036882B0DD07044630D5AD494A6802F02E
:100C5C000C02042A00F0FA804A6802F00C02082AFE
:100C6C0000F0F0806368B3F5803F00F07481002BD6
:100C7C0000F00481B3F5A02F00F0A981A04B1A68F5
:100C8C0022F480321A601A6822F480221A60FFF76C
:100C9C00ADFA9B4D064605E0FFF7A8FA801B6428C9
:100CAC0000F217812B689A03F6D523689F0728D585
:100CBC00934A516811F00C0F00F0A980516801F0B3
:100CCC000C01082900F09F802369002B00F0328171
:100CDC0001228C4B8A4D1A60FFF788FA064605E014
:100CEC00FFF784FA801B022800F2F3802B68980728
:100CFC00F6D52B68626923F0F80343EAC2032B6034
:100D0C0023681A075DD45D073AD57D4BDA69D000AC
:100D1C0000F1A6800125DA6942F08052DA61DB69C4
:100D2C0003F080530093009B774B1A68D10540F178
:100D3C00BF80E368012B00F01481002B00F0CD8004
:100D4C00052B6F4B1A6A00F04F8122F001021A62D8
:100D5C001A6A22F004021A62FFF748FA684E8046BB
:100D6C0041F2883706E0FFF741FAA0EB0800B842E1
:100D7C0000F2AF80336A9B07F5D5002D40F0F78069
:100D8C00E369D3B15E4D6A6802F00C02082A45D0C3
:100D9C00022B4FF000025D4B00F0EF801A60FFF762
:100DAC0025FA2C46054605E0FFF720FA401B0228E1
:100DBC0000F28F8023689B01F6D4002002B0BDE8BE
:100DCC00F081A369002B2DD00122514B4C4D1A60A0
:100DDC00FFF70CFA064604E0FFF708FA801B02281E
:100DEC0077D86B6A9B07F7D54A4B4B4A1B68A2FB1B
:100DFC0003235B0A019300BF019B5A1E0192002B37
:100E0C00F9D123687FE75268D6033FF55DAF3C4AC2
:100E1C001268950726D52269012A23D0012002B039
:100E2C00BDE8F0813A4A364D1360FFF7DFF906460C
:100E3C0004E0FFF7DBF9801B02284AD86B6A9F0796
:100E4C00F7D4DEE74A68D0037FF50CAF2C4A126862
:100E5C0091037FF52BAF6268002A7FF427AFDDE7A3
:100E6C00002561E7264960690A6822F0F80242EA27
:100E7C00C0020A601A077FF546AFA2E703F1804370
:100E8C0003F504331A681D4622F480321A601A687E
:100E9C0022F480221A60FFF7A9F9064604E0FFF756
:100EAC00A5F9801B642814D82B689B03F7D4FCE6A7
:100EBC001A681E4642F480721A60FFF797F90746CB
:100ECC003368DA053FF535AFFFF790F9C01B64289E
:100EDC00F6D9032002B0BDE8F08103F1804303F59D
:100EEC0004331A6A1E4622F001021A621A6A41F28F
:100EFC00883822F004021A62FFF778F9074612E0EC
:100F0C00001002400000424200700040600042426B
:100F1C008004424218000020D34D6210FFF766F99E
:100F2C00C01B4045D5D8336A9807F7D4002D3FF441
:100F3C0027AF1CE0344A354D1360FFF757F90646CE
:100F4C0004E0FFF753F9801B0228C2D82B689907DD
:100F5C00F7D42368D5E62D4A136843F48033136025
:100F6C0095E62A4A136A43F001031362F4E6274A12
:100F7C00D36923F08053D36102E71A60FFF736F987
:100F8C00064604E0FFF732F9801B0228A1D82B6833
:100F9C009901F7D4226AB2F5803F2DD001251B4B65
:100FAC00606A5968024321F4741119480A435A6063
:100FBC0005601C46FFF71AF9054604E0FFF716F921
:100FCC00401B022885D823689A01F7D5F5E603F172
:100FDC008043A3F53C331A6842F480221A601A68E5
:100FEC0042F480321A6052E642F004021A621A6A23
:100FFC0042F001021A62AFE66B68A16823F4003379
:10100C000B436B60CAE700BF000042420010024075
:10101C006000424270B50126022586B0154B0DF1D9
:10102C00180E0FCB0EE90F00134C8DF804608DF8E1
:10103C000550636803F00C02082A0BD1C3F38342FA
:10104C007244DB0312F8102C07D40C4800FB02F09E
:10105C0006B070BD0A4806B070BD63680848C3F39B
:10106C00404300FB02F0734413F8143CB0FBF3F064
:10107C0006B070BD8C2A00080010024000093D002B
:10108C0000127A004E4A136803F007038B420BD20E
:10109C00136823F007030B431360136803F0070373
:1010AC00994201D00120704703682DE9F0419A075D
:1010BC0006D5444C8568626822F0F0022A436260CF
:1010CC00DF0706460C4622D542683E4B012A1B68B8
:1010DC0072D0022A6AD0990729D53A4D41F2883844
:1010EC006B6823F0030313436B60FFF77FF873689F
:1010FC000746012B49D0022B05D151E0FFF776F8BA
:10110C00C01B404555D86B6813F00C0FF6D12C4A18
:10111C00136803F007039C420CD2136823F00703F7
:10112C0023431360136803F007039C4202D0012091
:10113C00BDE8F08133685A0706D52249F0684A6841
:10114C0022F4E06202434A601B0707D51D4A31694D
:10115C00536823F4605343EAC1035360FFF75AFF0B
:10116C00184B19495B68194AC3F30313CB5C20FA7B
:10117C0003F300201360FEF7F9FF0020BDE8F081B7
:10118C00FFF734F8C01B404513D86B6803F00C0311
:10119C00042BF5D1BBE7FFF729F8C01B404508D855
:1011AC006B6803F00C03082BF5D1B0E7980194D4CD
:1011BC00BDE70320BDE8F0819D038ED4B7E700BFE7
:1011CC0000200240001002409C2A00081800002059
:1011DC00014B1868704700BF180000202DE9F04142
:1011EC0080460F4616461D46D8F8004001E06B1CA1
:1011FC000AD1A06837EA00030CBF01200020864208
:10120C00F5D10020BDE8F0813DB1FEF7EFFF069B64
:10121C00C01A8542E8D8D8F800406368D8F8042092
:10122C0023F0E003B2F5827F636017D0D8F8283042
:10123C00B3F5005F08D00122002388F8512088F80C
:10124C0050300320BDE8F0814DF6FF722368134047
:10125C002360236843F400532360ECE7D8F808308C
:10126C00B3F5004F02D0B3F5806FDFD1236823F0C4
:10127C0040032360DAE700BF30B40125044690F840
:10128C00510084F85050C0B2A8420ED06568B5F534
:10129C00827F05D00220002384F8503030BC704788
:1012AC00A568002DF6D10428F4D121B31AB313B3D9
:1012BC0094F851000025012804BF052084F8510042
:1012CC00E06865652163E386A386A263A387E38751
:1012DC00C8B10F4A0F4B2264636423685A6842F00A
:1012EC00E0025A60186810F040000AD11A6842F007
:1012FC0040021A60CFE70023012084F8503030BC44
:10130C0070470020C7E7044A044B22646364E4E797
:10131C00A11400086D14000835140008FD13000812
:10132C0010B490F85040012C02D010BCFFF7A4BFB1
:10133C00022010BC704700BF704700BF642210B57C
:10134C000446294B29491B6884B0A1FB03135B0A93
:10135C0002FB03F30293FEF749FF21684B6823F06D
:10136C0020034B6002E08B689B0708D4029B5A1E3B
:10137C000292002BF7D1636D43F02003636500905C
:10138C006423002280212046FFF728FF38B1636DCB
:10139C0043F020036365636D43F020036365A3682A
:1013AC0033B922680393D368039393680393039B25
:1013BC00636D63B994F851302046042B4FF0010350
:1013CC0084F851300BD000F05DFB04B010BD01234C
:1013DC00204684F8513000F065FB04B010BDFFF7D7
:1013EC00ABFF04B010BD00BF18000020F11976054A
:1013FC0010B4026B0168541C046312780A73C28E19
:10140C00013A92B2C286C28E92B23AB901684A6867
:10141C0022F080024A60C38F9BB20BB110BC7047A4
:10142C0010BCFFF78BBF00BF10B4826B0168541C5B
:10143C008463097B1170C28F013A92B2C287C28F4A
:10144C0092B23AB901684A6822F060024A60C38ECF
:10145C009BB20BB110BC704710BCFFF76FBF00BF45
:10146C00016B10B431F8022B0468E260C28E016388
:10147C00013A92B2C286C28E92B232B9626822F03E
:10148C0080026260C38F9BB20BB110BC704710BC62
:10149C00FFF754BF10B40468816BE26821F8022B8B
:1014AC00C28F8163013A92B2C287C28F92B232B9B3
:1014BC00626822F040026260C38E9BB20BB110BC1A
:1014CC00704710BCFFF73ABF026830B5516893689B
:1014DC0085B003F04105012D04464BD0980743D449
:1014EC0013F0600F3ED088063CD55D060ED594F8FF
:1014FC005100032847D00025606D40F00400606562
:10150C000195D068019090680190019898060CD5CF
:10151C000020636D43F001036365039093680393AC
:10152C00136823F040031360039B636DD3B1012058
:10153C00536823F0E00353608B0784F851001ED0EE
:10154C005368E16C23F00303536021B1124B08463E
:10155C004B63FFF717FAA36C23B10F4A18465A6373
:10156C00FFF710FA05B030BD0D06B9D5636C2046F7
:10157C009847F7E74D06B1D5036C9847F2E720463C
:10158C0000F090FAEEE700230293D368029393687D
:10159C000293029BE6E700BFA9150008002208B5DC
:1015AC00436ADA871846DA8600F07CFA08BD00BF79
:1015BC0000283AD0F8B5002390F8512004468362F5
:1015CC00002A2ED01A46022700210125A66863683E
:1015DC00E06833432669034360693343E669034398
:1015EC003343206AA66984F851702768034306F4D4
:1015FC000070034338681343360C20F04002606AD5
:10160C0006F004060643E06A3A603B607E6038618F
:10161C00FB69084623F40063FB61616584F8515053
:10162C00F8BD00F0F5FCA26ACDE70120704700BFC1
:10163C0090F83C30012B40D00222F0B40125036815
:10164C0080F83D209A680C6822F47F4222F07702E1
:10165C00402C80F83C509A6073D018D9702C60D014
:10166C002DD9B4F5805F57D0B4F5005F1CD18A68D2
:10167C004D68CC6899682A4342EA042221F47F41E0
:10168C000A439A609A6842F480429A600CE0102CEB
:10169C0032D038D9202C6CD0302C05D19A6822F05D
:1016AC00700242F037029A600023F0BC012280F8ED
:1016BC003C3080F83D201846704702207047502C73
:1016CC005ED0602CF0D11C6A4D6824F01004CE68FA
:1016DC001C6299691A6A21F4704122F0A00242EA54
:1016EC00051241EA063199611A629A6822F0700279
:1016FC0042F067029A60D7E79A6822F0700242F0D3
:10170C0017029A60D0E7002CCED19A6822F07002B2
:10171C0042F007029A60C7E79A6822F007029A60C3
:10172C00C2E78A684D68CC6899682A4342EA042269
:10173C0021F47F410A439A609A6842F077029A60DA
:10174C00B2E71D6A1E6A4C6826F00106CF681E625D
:10175C009A6925F00A0122F0F00242EA07122143AD
:10176C009A6119629A6822F0700242F047029A60FC
:10177C009AE79A6822F0700242F027029A6093E787
:10178C001D6A1E6A4C6826F00106CF681E629A69B3
:10179C0025F00A0122F0F00242EA071221439A6175
:1017AC0019629A6822F0700242F057029A607BE745
:1017BC00704700BF704700BF704700BF704700BF45
:1017CC00704700BF036810B51A690446910702D52B
:1017DC00DA68920762D41A69500702D5DA685107A1
:1017EC0049D41A69120702D5DA68100731D41A697C
:1017FC00D20602D5DA68D00618D41A69D10702D5F8
:10180C00DA68D2076BD41A69100602D5DA681106A9
:10181C006DD41A69520602D5DA68500657D41A6983
:10182C00910602D5DA68920649D410BD6FF010010A
:10183C0008221961DB69204613F4407F227761D1BD
:10184C00FFF7B8FF2046FFF7B9FF00222368227785
:10185C00D3E76FF0080104221961DB692046990770
:10186C00227755D1FFF7A6FF2046FFF7A7FF0022EE
:10187C0023682277BBE76FF00401022219619B6990
:10188C00204613F4407F22773FD1FFF793FF204689
:10189C00FFF794FF002223682277A2E76FF0020182
:1018AC00012219619B6902779B0728D1FFF782FF00
:1018BC002046FFF783FF0022236822778BE76FF027
:1018CC0020022046BDE810401A6100F0A5B86FF068
:1018DC00400220461A61FFF773FF23689FE76FF001
:1018EC00010220461A61FFF763FF23688BE76FF054
:1018FC00800220461A6100F091F8236889E7FFF70F
:10190C005BFFD8E7FFF758FF9FE7FFF755FFC1E7ED
:10191C00FFF752FFABE700BF1D4A0368904221D08E
:10192C00B0F1804F30B414D0A2F59432904210D064
:10193C0002F5806290420CD04D6923F080032B435A
:10194C008C680A6803600123C462826230BC436104
:10195C0070474A6823F070031343CA6823F440733A
:10196C001343E9E74A6823F070031343CA6823F46E
:10197C00407313434A6923F08003134303608B685D
:10198C00C3620B6883620B69036301234361704775
:10199C00002C0140B8B190F83D3010B503F0FF02B7
:1019AC0004465BB10223206884F83D30211DFFF70B
:1019BC00B3FF0123002084F83D3010BD80F83C209B
:1019CC0000F05CFBEEE70120704700BF90F83C3064
:1019DC00012B1FD002460220F0B50025012613680A
:1019EC0082F83D005C68D1F800E024F070045C6083
:1019FC0058684F6840EA0E0058609C68284624F0EE
:101A0C0080049C6099683943996082F83D6082F843
:101A1C003C50F0BD02207047704700BF704700BFBC
:101A2C0030B5012200244FF48033022591B006A872
:101A3C0006920A9207930E9308940F940D95FFF754
:101A4C00FDF80F228023214601A8019203930295F1
:101A5C0004940594FFF716FBFFF7BAFB084BA3FBA6
:101A6C0000308009FEF764FF0420FEF779FF224660
:101A7C0021464FF0FF30FEF719FF11B030BD00BF0B
:101A8C00D34D6210012310B4044C1A4623604FF45A
:101A9C000051034810BCFFF7C9B800BF9C000020E0
:101AAC00001001400222014B1A6070479C0000207C
:101ABC00F8B5B8B90A26AA251B4B1C4859689A6870
:101ACC00036B080C0F0A140C5875100AD9759F7506
:101ADC00DA761E751D765C7698761448FEF7A4FCB3
:101AEC0068B9F8BD012811D0022816D00328F4D10A
:101AFC000F4B0D26DD250D489968DA68E0E74FF4A9
:101B0C000051BDE8F8400B48FFF794B8064B0B2684
:101B1C00BB250648D9681A69D2E7054B0C2693E811
:101B2C000600CC250148CBE79C000020800100205A
:101B3C000800002000100140704700BF2DE9F84359
:101B4C0090460022994606460F46FFF76FF8494625
:101B5C004046FFF765F80028F9D104461825012204
:101B6C0039463046FFF762F8394630460022FFF717
:101B7C005DF8494640466400FFF752F800B1013465
:101B8C00013DECD1394630460122FFF74FF8304683
:101B9C002A463946FFF74AF884F40000BDE8F8837A
:101BAC002DE9804899B0FEF703FBFFF739FF0022BF
:101BBC004FF00809B84B154698694FF4805A40F01D
:101BCC00100098619C694FF4005104F010040894C3
:101BDC00089C9C69B14844F020049C619C694FF0BE
:101BEC00010804F020040994099C9E69022446F023
:101BFC0004069E619E694FF4827B06F004060A96E9
:101C0C000A9E9E69A64F46EA09069E619B69A54EEF
:101C1C0003EA09030B930B9BFFF708F82A46494686
:101C2C00A148FFF703F82A465146A048FEF7FEFFED
:101C3C004FF400530EA999480E93CDF83C801095A3
:101C4C001194FEF7EBFE0EA99748CDF83C80109549
:101C5C001194CDF83890FEF7E1FEF0230EA99248CE
:101C6C000F9510950E93FEF7D9FE40F603430EA97F
:101C7C008E480E930F951095FEF7D0FE0EA98B484B
:101C8C00CDF83C8010951194CDF838A0FEF7C6FE27
:101C9C004FF400720A23864938463C61BD60FD60F2
:101CAC00C7F81480FD613D627D62BD623960BA6126
:101CBC00FB62C7F804B0FFF77BFC4FF47A62632336
:101CCC007C4C7D49204684E80600E360A5602561D4
:101CDC00A561FFF75FFE0EA92046CDF838A0FFF7EF
:101CEC00A7FC0CA920460C950D95FFF76FFE4FF441
:101CFC00A023724A3046C6F80480B560F560756161
:101D0C00B561F56135627562B562F5623260336159
:101D1C00FEF7F4FA0E236A4C0EA904F11C023046AD
:101D2C003463726313951495CDF854800E950F950A
:101D3C00109511951295CDF858801793FEF76EFA01
:101D4C004FF0C0500421336B4246586000F12050D4
:101D5C00C3F80080DD60C3F81090996000F5843002
:101D6C004946FEF763FF3220FEF746FA2A464946FB
:101D7C004D48FEF75BFF3868C7F804B0036842466D
:101D8C0043F04003036051464848FEF74FFF05F10E
:101D9C0080454C4EDFF83891444FDFF8388105F51B
:101DAC008435143C10232A4608213F48FFF7C6FE11
:101DBC00626D0821A0EB020E20232A463A48C4F893
:101DCC0004E0FFF7BBFEA36DC31A0020A360FFF76E
:101DDC006FFE40232A4608213348FFF7AFFEE26D21
:101DEC000821A0EB020E80232A462F48C4F80CE0F1
:101DFC00FFF7A4FE236EC31A01202361FFF758FEE0
:101E0C0001233A4608212846FFF798FEE26D082187
:101E1C00A0EB020E02233A462846C6F800E0FFF774
:101E2C008DFE236EC31A02207360FFF741FE3A4603
:101E3C0008214FF480632846FFF780FEE36DC31A38
:101E4C000320B360FFF734FEFEF7D0F98646B4F8F2
:101E5C007410B068A3686268CDF814E00490069121
:101E6C007168404603913168029121690191E168E2
:101E7C0000911549C9F800E000F0BCF900224FF4BC
:101E8C0080513846FEF7D2FE6423104A414604487E
:101E9C00FFF746FA20E000BF00100240001001409E
:101EAC00280100208001002000080140000C0140A6
:101EBC0000380040C40100200004004000640040D1
:101ECC00B000002008000020B42A000808020020FE
:101EDC00040200206C0200202368002BFCD0384642
:101EEC0001224FF480512368FEF7A0FE0220FEF77A
:101EFC0083F957E7254B00B59A6983B042F001028C
:101F0C009A619A69032002F001020092009ADA6940
:101F1C0042F08052DA61DB6903F080530193019B3C
:101F2C00FEF7B2FC00226FF00B001146FEF7BEFC70
:101F3C0000226FF00A001146FEF7B8FC00226FF089
:101F4C0009001146FEF7B2FC00226FF004001146A6
:101F5C00FEF7ACFC00226FF003001146FEF7A6FC66
:101F6C0000226FF001001146FEF7A0FC00224FF09A
:101F7C00FF301146FEF79AFC054A536823F0E063E4
:101F8C0043F00073536003B05DF804FB0010024093
:101F9C000000014002681C4B9A4200D0704730B5DB
:101FAC0000244FF4006503F5D633DA6987B042F0AC
:101FBC000072DA61DB6902A903F000730193134824
:101FCC00019B0295039404944FF48055FEF726FD73
:101FDC000323022202A90D48059303920295FEF7F2
:101FEC001DFD224621461320FEF760FC1320FEF750
:101FFC0093FC224621461420FEF758FC1420FEF7D1
:10200C008BFC07B030BD00BF0064004000080140ED
:10201C000268184B9A4200D0704770B54FF42046B6
:10202C000225032403F5EC33DA6986B042F48042CE
:10203C00DA61DB6902A903F4804301930E48019B2A
:10204C000594029600240395FEF7E8FC4FF48043B8
:10205C0002A90948029303940494FEF7DFFC22467C
:10206C0021462420FEF722FC2420FEF755FC06B066
:10207C0070BD00BF00380040000C014002680D4BE1
:10208C009A4200D07047002203F5033310B5DC6987
:10209C0082B044F00204DC61DB69114603F00203F8
:1020AC0001931D20019BFEF701FC1D20FEF734FC63
:1020BC0002B010BD00040040704700BFFEE700BF37
:1020CC00FEE700BFFEE700BFFEE700BF704700BFA2
:1020DC00704700BF704700BF08B5FEF77BF8BDE83E
:1020EC000840FEF74BBC00BF0148FEF7CBBA00BF5F
:1020FC0080010020FFF7F8BF0148FFF763BB00BF6A
:10210C00C40100200148FFF7DFB900BF28010020FF
:10211C0030B44FF41F054FF000640E4B0E4A196893
:10212C000E4841F00101196059680A405A601A685A
:10213C0022F0847222F480321A601A6822F480220F
:10214C001A605A6822F4FE025A609D60846030BCAA
:10215C00704700BF001002400000FFF800ED00E0E7
:10216C00002103E00B4B5B58435004310A480B4BE6
:10217C0042189A42F6D30A4A02E0002342F8043B82
:10218C00084B9A42F9D3FFF7C3FF00F00FF8FFF7A3
:10219C0007FD7047142B0008000000208000002071
:1021AC0080000020D4020020FEE7000070B500255E
:1021BC000C4E0D4CA41BA410A54209D100F054FCEC
:1021CC0000250A4E0A4CA41BA410A54205D170BDD3
:1021DC0056F8253098470135EEE756F825309847E4
:1021EC000135F2E70C2B00080C2B00080C2B000817
:1021FC00102B00080EB44FF4027100B59CB0ADF872
:10220C0014106FF00041049107914FF6FF711DAB54
:10221C0002900690084853F8042BADF8161000688D
:10222C0002A9019300F066F80022029B1A701CB000
:10223C005DF804EB03B070471C0000202DE9F0475B
:10224C008E6882469E420C469146984635D88A89BD
:10225C0012F4906F31D00223256809696F1A6569F1
:10226C0005EB450595FBF3F508F101033B449D4255
:10227C0038BF1D46530531D5294600F047FB0646AD
:10228C0050B90C23CAF80030A3894FF0FF3043F04B
:10229C004003A381BDE8F0873A46216900F0C4FAF7
:1022AC00A38923F4906343F08003A38126613E4409
:1022BC00266046466561ED1BA560464528BF46462F
:1022CC0049463246206800F0BAFAA36800209B1BEE
:1022DC00A36023681E442660BDE8F0872A4600F000
:1022EC0073FB06460028E1D12169504600F0C2FA82
:1022FC00C7E700002DE9F04F9DB003938B89804612
:10230C001C060D4616460FD50B696BB9402100F023
:10231C00FDFA2860286128B90C23C8F800304FF06A
:10232C00FF30C4E040236B610023099320238DF818
:10233C00293030234FF0010B8DF82A3037463C46BC
:10234C0014F8013B002B3CD1B7EB060A0BD05346DB
:10235C00324629464046FFF771FF013000F0A2805B
:10236C00099B534409933B78002B00F09B8000237E
:10237C004FF0FF3204930793059206938DF8533078
:10238C001A9305222178504800F040FA671C049BF0
:10239C00D8B9D90644BF20228DF853201A0744BF60
:1023AC002B228DF8532022782A2A16D000210A20BD
:1023BC00079A27463B780134303B092B50D9C9B1D9
:1023CC0011E0252BC0D02746B9E73F4A3C46801A7E
:1023DC000BFA00F018430490D3E7039A111D12680E
:1023EC000391002A01DB079204E0524243F00203FE
:1023FC00079204933B782E2B0DD17B78791C2A2BDA
:10240C0032D1039B02371A1D1B680392002BB8BFF5
:10241C004FF0FF3305932D4C03223978204600F002
:10242C00F5F938B14023001B03FA00F0049B013787
:10243C00034304933978062225487E1C8DF8281016
:10244C0000F0E4F9002835D0224BFBB9039B07338D
:10245C0023F0070308330393099B4B4409936DE75F
:10246C0000FB02320121A4E700230A24184605933D
:10247C000F463A780131303A092A03D9002BCAD0D9
:10248C000590C8E704FB00200123F1E703AB0093A0
:10249C002A46114B04A94046AFF30080B0F1FF3F30
:1024AC008146D9D1AB895B063FF539AF09981DB090
:1024BC00BDE8F08F03AB00932A46074B04A94046B6
:1024CC0000F084F8EAE700BFD82A0008DE2A0008EA
:1024DC00E22A000800000000492200082DE9F0471C
:1024EC0091461F468A680B6906469342B8BF13464D
:1024FC00C9F8003091F843200C46DDF8208012B169
:10250C000133C9F800302368990642BFD9F800306E
:10251C000233C9F80030256815F0060507D104F11F
:10252C00190AE368D9F800209B1A9D422ADB94F81B
:10253C0043302268003318BF012392062FD404F1D4
:10254C00430239463046C047013022D02368E56843
:10255C0003F00603042B18BF0025D9F800204FF018
:10256C00000908BFAD1AA368226908BF25EAE57502
:10257C009342C4BF9B1AED181A344D451BD1002051
:10258C00BDE8F0870123524639463046C04701303A
:10259C0003D14FF0FF30BDE8F0870135C1E73020A3
:1025AC00E11881F843005A1C94F845102244023378
:1025BC0082F84310C3E70123224639463046C04710
:1025CC000130E6D009F10109D7E700002DE9F0430D
:1025DC0017460A7E85B06E2A984606460C460C9B1A
:1025EC0001F1430E00F0BC801AD8632A2ED00AD811
:1025FC00002A00F0C880582A00F08A8004F14205B5
:10260C0084F842202AE0642A01D0692AF6D1216894
:10261C001A6811F0800F23D0111D1960136827E080
:10262C00732A00F0B48008D86F2A2AD0702AE5D11A
:10263C000A6842F020020A6003E0752A21D0782A49
:10264C00DCD178226F4984F8452064E01A6801F1E6
:10265C004205111D1960136884F842300123A3E070
:10266C0011F0400F02F104011960D7D0B2F900301B
:10267C00002B03DA2D225B4284F8432062490A22A4
:10268C0017E02068196810F0800F03D0081D18603F
:10269C000B6806E010F0400F01F104001860F7D051
:1026AC000B886F2A14BF0A2208225749002084F88D
:1026BC0043006568002DA560C0F29C80206820F066
:1026CC0004002060002B3FD1002D40F09580754612
:1026DC00082A0BD12368DA0708D5236962689A4265
:1026EC00DEBF302305F8013C05F1FF35AEEB0503E9
:1026FC002361CDF800803B4603AA21463046FFF704
:10270C00EDFE013055D14FF0FF3005B0BDE8F08340
:10271C0081F845203C492268186812F0800F00F1BE
:10272C0004051D6001D0036802E05506FBD5038843
:10273C00D00744BF42F0200222601BB9226822F06D
:10274C00200222601022B1E77546B3FBF2F002FBC7
:10275C001033CB5C05F8013D03460028F5D1B7E7F3
:10276C0008681A6810F0800F496904D0101D1860B1
:10277C001368196007E010F0400F02F104001860B4
:10278C001368F6D01980002375462361B1E71A68E7
:10279C00111D1960156800216268284600F036F892
:1027AC0008B1401B606063682361002384F84330E8
:1027BC009FE723692A4639463046C0470130A2D0EC
:1027CC0023689B0707D5002504F11909E368039AD0
:1027DC009B1A9D4205DBE068039B9842B8BF1846E4
:1027EC0093E701234A4639463046C04701308AD028
:1027FC000135EBE7002BA7D10B7804F1420584F8E7
:10280C00423065E7FA2A0008E92A000810B5C9B277
:10281C0002449042034601D1002010BD1C780130C7
:10282C008C42F6D1184610BD10B5431E0A44914295
:10283C0000D110BD11F8014B03F8014FF7E78842A6
:10284C0010B501EB020303D8421E99420CD110BD06
:10285C009842F9D28118D21AD34200D110BD13F884
:10286C00014D01F8014DF7E711F8014B02F8014F4A
:10287C00EBE7000038B50546002943D051F8043C7D
:10288C000C1F002BB8BFE41800F0D4F81E4A1368D4
:10289C00104633B9636014602846BDE8384000F038
:1028AC00CAB8A3420BD921686218934201BF1A68B7
:1028BC005B685218226063600460EDE713465A6847
:1028CC000AB1A242FAD919685818A0420BD1206853
:1028DC000144581882421960DED1106852680144D4
:1028EC0019605A60D8E702D90C232B60D4E7206812
:1028FC0021188A4201BF1168526809182160626070
:10290C005C60C9E738BD00BF1801002070B5CD1C54
:10291C0025F0030508350C2D38BF0C25002D064677
:10292C0001DBA94203D90C233360002070BD00F0F9
:10293C0081F8234A1468214691B9224C23681BB9AB
:10294C00304600F067F820602946304600F062F807
:10295C00431C26D10C233046336000F06CF8E4E7BE
:10296C000B685B1B1AD40B2B0FD90B60CC18CD50FA
:10297C00304600F060F804F10B00231D20F0070036
:10298C00C31A1BD05A42E25070BD8C420BBF636815
:10299C004B681360636018BF0C46E9E70C46496846
:1029AC00CAE7C41C24F00304A04205D0211A304607
:1029BC0000F030F80130CDD02560D9E770BD00BFF4
:1029CC00180100201C010020F8B5074614460E46DD
:1029DC0021B91146BDE8F840FFF798BF22B9FFF7BF
:1029EC0049FF25462846F8BD00F026F884420FD949
:1029FC0021463846FFF78AFF05460028F2D03146BB
:102A0C002246FFF711FF31463846FFF733FFE9E75F
:102A1C003546E7E738B50023054C054608462360E4
:102A2C0000F014F8431C02D1236803B12B6038BDAD
:102A3C00D00200207047704751F8040C0028A0F118
:102A4C000400BCBF0B58C01870470000044A05496D
:102A5C001368002B08BF0B461844106018467047CB
:102A6C0020010020D8020020F8B500BFF8BC08BC3B
:102A7C009E467047F8B500BFF8BC08BC9E46704730
:102A8C0002030405060708090A0B0C0D0E0F1010A3
:102A9C000000000000000000010203040607080902
:102AAC000000000001020304256C7509256C7509F2
:102ABC00256C7509256C7509256C7509256C7509CE
:102ACC00256C750925640925640A0000232D302B1B
:102ADC002000686C4C006566674546470030313213
:102AEC00333435363738394142434445460030316A
:102AFC0032333435363738396162636465660000C9
:042B0C00310100088B
:042B10000D010008AB
:102B1400010000001000000002000000020000009C
:102B2400020000000200000000A24A04200000206D
:102B34000000000000000000000000000000000091
:102B44000000000000000000000000000000000081
:102B54000000000000000000000000000000000071
:102B64000000000000000000000000000000000061
:102B74000000000000000000000000000000000051
:102B84000000000000000000000000000000000041
:040000050800216D61
:00000001FF
